:060000000A128A116F29AB
:100008008B13A000030EA1000B1993210C18552186
:0E0018008C186221210E8300A00E200E09001C
:100200008A010A1482073F3406345B344F34663463
:100210006D347D3407347F346734031383160F1431
:1002200008000317831688018901031383168501CB
:1002300088018701031383128501860188013F30FD
:1002400087000800640003138316D03001050138CD
:1002500081003F21080003138312F53090004521EF
:100260000800031383126630123008008B170B1737
:100270008B160C148C140B110C108C10080003132B
:100280008312063081000B110800031383120B3018
:100290008F00DC308E000C100800031383126630D0
:1002A0009100F03092008C1008004521A30A230829
:1002B000023C031D0800A301A50A643025060319AA
:1002C000A50108004D21A40A2408053C031DA40132
:1002D0000130AC062C1805142C1C051008000D214B
:1002E000112122212B213621782183218C2174296F
:1002F0002508A600A7010A30A6020318A70A0318BA
:100300007C29A6070800A8010130A6020318A80A44
:1003100003188529A607080028080021A900270836
:100320000021AA0008003F2188012B189E29AB1844
:1003300099292908870008140130A3292A08870071
:0A03400088140030A329AB00080068
:04400E00D420FF3F7C
:00000001FF
