:060000000A128A11142906
:100200008A010A1482070F393F3406345B344F34B5
:1002100066346D347D3407347F34673477347C340E
:1002200039345E3479347134242128213D210B1D69
:1002300017294A2105185921051C5B2185186321BE
:10024000851C65216D211729031383160F140800DF
:100250000317831688018901031383160514851477
:100260008701880109100313831285018601870124
:1002700088013F308800A201080064000313831640
:10028000D03001050238810003138312043081004D
:100290000B110800FA30A1000B1D4C295521A10BB0
:1002A0004C29870A071A87010800063081000B11C4
:1002B000080020140800201C0800A20A22080021BF
:1002C0008800A0010800A0140800A01C0800A203D8
:1002D000220800218800A001080009102208070652
:0A02E000031D08008701091408003F
:04400E00D420FF3F7C
:00000001FF
