:020000040000FA
:060000000A128A110E280D
:10000800FE00030EF8000408F9000A08FA000A12B4
:100018008A1186290A128A11112883133630FD00A5
:100028000230FE009930FF00203084000A128A1145
:10003800B3220A128A11C501C601C701C801C90144
:10004800CA01CB01CC01CD01CE01FB01FC0183012A
:100058000A128A11222A831203134008803AFF00E9
:1000680080307F02031D3A2864303F02031C3D287C
:100078003E289128831203134008803AFF008030FD
:100088007F02031D4928C8303F02031C4C284D2815
:100098008628831203133F08383EBF004008031820
:1000A800013EFF3EC0000A30B6000030B7004008ED
:1000B800B9003F08B8000A128A11C2200A128A1130
:1000C8008312031341088400360883138000840ACE
:1000D800370880000A30B6000030B7004008B90081
:1000E8003F08B8000A128A112B210A128A118312BA
:1000F800031342088400360883138000840A3708F3
:100108008000C128831203133F089C3EBF004008AB
:100118000318013EFF3EC00057280A30831203131C
:10012800B6000030B7004008B9003F08B8000A120E
:100138008A11C2200A128A1183120313410884000B
:10014800360883138000840A370880000A30B60016
:100158000030B7004008B9003F08B8000A128A11F9
:100168002B210A128A1183120313420884003608CD
:1001780083138000840A3708800008008312031361
:10018800BC01B71FC828C928D028B609B709B60ABC
:100198000319B70ABC01BC0AB91FD328D428DD2823
:1001A800B809B909B80A0319B90A0130BA003A08F6
:1001B800BC06BD01BE01360837040319E428E5284A
:1001C8001C29BB01BB0AF32801300310B60DB70D7B
:1001D800FF3E031DE9280130BA003A08BB07B71FE4
:1001E800F628F728E82801300310BD0DBE0DFF3EA4
:1001F800031DF82837083902031D04293608380278
:10020800031C072908290F293608B8023708031CD8
:10021800B903B9023D1401300310B70CB60CFF3E08
:10022800031D10290130BB02031D1B291C29F728B7
:100238003C080319202921292629BD09BE09BD0A20
:100248000319BE0A3E08B7003D08B600080083122D
:100258000313BC01B91F312932293929B809B90951
:10026800B80A0319B90ABC01BC0AB71F3C293D29C1
:100278004229B609B709B60A0319B70A3608370476
:100288000319472948297729BB01BB0A5629013098
:100298000310B60DB70DFF3E031D4C290130BA00FF
:1002A8003A08BB07B71F59295A294B293708390279
:1002B800031D602936083802031C632964296A294A
:1002C8003608B8023708031CB903B9020130031015
:1002D800B70CB60CFF3E031D6B290130BB02031D92
:1002E800762977295A293C0803197B297C298129F1
:1002F800B809B909B80A0319B90A3908B70038089A
:10030800B60008008B130B1D8A298B29A7290130F9
:1003180083120313C9070318CA0A0030CA076430D6
:1003280081007C08F1007B08F0004E08F3004D08BE
:10033800F2004C08F5004B08F4000A128A11E0217B
:100348000A128A110B110B1CAA29AB29D629831270
:1003580003130618B029B129B6290130C7000030A7
:10036800C800C22947034804031DBB29BC29C22968
:100378000130F70077088807C701C8018618C52922
:10038800C629CB290130C5000030C600D529450350
:100398004604031DD029D129D52901308802C50179
:1003A800C6010B108B177A088A0079088400780E2A
:1003B8008300FE0E7E0E0900831203138901112AA1
:1003C8007408F6007607203E84008313000887002F
:1003D800013089000230B4000030B500212A7208CB
:1003E800F6007607203E8400831300088700023059
:1003F80089000330B4000030B500212A7008F600E7
:100408007607203E840083130008870004308900A3
:100418000130B4000030B500212A3508003A03192C
:10042800162A212A3408013A0319E429033A031940
:10043800F329013A0319022A212A08000A128A110B
:1004480056220A128A1183120313490885000808E4
:10045800C300C4014308CF004408D0005008C000BE
:100468004F08BF007B30C3004308C1000A128A113D
:1004780080220A128A11831203135008C0004F0801
:10048800BF004D30C3004308C1004B30C4004408CE
:10049800C2000A128A112F200A128A11272A0A1268
:1004A8008A110E28831603178801890183160313FE
:1004B80085018701880189010330860083120313AF
:1004C8008501870188018901831603130F178F1689
:1004D8000F120F145430810064308312031381000B
:1004E8008316031315149514161496148B178B166C
:1004F8000B118B150B100800643083120313B60020
:100508000030B7004008B9003F08B8000A128A1145
:10051800C2200A128A118312031341088400360884
:100528008000840A3708800008003F34003406340D
:1005380000345B3400344F340034663400346D3496
:1005480000347D340034073400347F340034673499
:100558000034013400347E088A007F0882000A12C1
:100568008A11AF220A128A118000840A04087D06C3
:0C05780003190034FF0A0319FE0AB32A1D
:04400E00D520FF3F7B
:00000001FF
