:060000000A128A11D12949
:100008008B13A000030EA1000B18C2210B197A2133
:100018003A238C188521210E8300A00E200E09009A
:100200008A010A1482073F3406345B344F34663463
:100210006D347D3407347F34673400340313831620
:100220000F1408000317831688018901031383162E
:100230008501890187018801061486140615861335
:100240001514951415150313831285018601880171
:1002500089010800BE010A30A600AF00B0002608E0
:10026000A700A800A9002F08A907031383124C3088
:1002700085008613A50125140130CA000A30BD008F
:10028000BC002608B1002F08B2003008B3000800F7
:100290006400031383165030010504388100742173
:1002A0000800031383126630920003138316F030A4
:1002B0009200031383128C1008008B170B178B15F9
:1002C0008B160B110B10031383168C14031383125C
:1002D0008C100800031383161614961416150313B6
:1002E000831206080B1008000313831206308100E6
:1002F0000B1108007421A20A22087D3C031D08008E
:10030000A201A703A803A90308008C10A30A2308CD
:10031000053C031D0800A3010130B5060800341098
:10032000051185140800851005140230A5002F085A
:10033000A700A800A9003008A707851185160800A6
:10034000B410851205160800051285150430A500A5
:100350003008A700A800A9002608A80705138617DB
:10036000080034118613851708008513051701301E
:10037000A5002608A700A800A9002F08A9070510B6
:10038000051508000310061DCA0D061C4B14861C1B
:10039000CB140B1020304A06031D08000130CA00A0
:1003A00008000E211221482151216A215D212A21B4
:1003B000C522D022D922E422ED22F82201231223E1
:1003C000212325188322A51892222519A122B022C3
:1003D000B722BE22EC21D8294A18F721CA18FB21DE
:1003E0004A191C22CA193D224A1A5E220800091025
:1003F000891009110800091489100911061806222C
:10040000861811223108AA000B1008004B1C0800A6
:10041000B10A4B1015303106031D08000A30B10037
:100420000800CB1C0800B103CB1009303106031DB6
:1004300008001430B10008000910891409110618C9
:100440002722861832223208AA000B1008004B1C03
:100450000800B20A4B1015303206031D08000A309E
:10046000B2000800CB1C0800B203CB1009303206E2
:10047000031D08001430B200080009108910091586
:1004800006184822861853223308AA000B100800C9
:100490004B1C0800B30A4B1015303306031D08002F
:1004A0000A30B3000800CB1C0800B303CB1009309E
:1004B0003306031D08001430B30008000914891422
:1004C0000915061866228618772208004B1C0800BA
:1004D0004B103108A6003208AF003308B000B52138
:1004E0004C3085008613B4010130CA000800CB1CD3
:1004F0000800CB102608B1002F08B2003008B30066
:100500000130CA000800251C080006302706031920
:1005100034140330270603198F21003027060319EE
:1005200093210800A51C0800063028060319B414FE
:10053000033028060319A021003028060319A4213E
:100540000800251D0800063029060319341503305C
:1005500029060319B121003029060319B521080025
:10056000341C080035180515351C05110800B41C8D
:10057000080035188516351C85120800341D080042
:1005800035188617351C861308002708AB00B601FE
:100590000A30AB020318B60A0318C92AAB070800D1
:1005A000B7010130AB020318B70A0318D22AAB0710
:1005B00008002808AC00B8010A30AC020318B80AD9
:1005C0000318DD2AAC070800B9010130AC0203189A
:1005D000B90A0318E62AAC0708002908AD00BA01D9
:1005E0000A30AD020318BA0A0318F12AAD07080051
:1005F000BB010130AD020318BB0A0318FA2AAD078C
:1006000008002A08AE00BC010A30AE020318BC0A7A
:100610000318052BAE074A18102B4A1A102B080096
:100620000A30BC00BD010130AE020318BD0A031838
:10063000142BAE074A181F2B4A1A1F2B08000A302A
:10064000BD0037080021BE0036080021BF00390870
:100650000021C00038080021C1003B080021C20071
:100660003A080021C3003D080021C4003C080021D5
:10067000C50008007421351C8623351C8C23351CCD
:10068000922388012418582BA418522B24195E2B6E
:10069000A419652B241A6C2BA41A722B241B782BFB
:1006A000A41B7E2B88013E08870008140130842B90
:1006B00088013F08870088140430842B8801400893
:1006C000870008150830842B08008801410887003E
:1006D00088151030842B080088014208870008160E
:1006E0002030842B88014308870088164030842BF3
:1006F00088014408870008178030842B880145084A
:10070000870088170030842BA4000800341C0800E0
:100710000030BE00BF000800B41C08000030C0005C
:10072000C1000800341D08000030C200C3000800EA
:04400E00D420FF3F7C
:00000001FF
