:060000000A128A11962984
:100008008B13A000030EA1000B196E2101228C187E
:0C0018008521210E8300A00E200E09009F
:100200008A010A1482073F3406345B344F34663463
:100210006D347D3407347F346734031383160F1431
:1002200008000317831688018901031383168501CB
:100230008901870188010614861406158613151492
:100240009514151503138312850186018801890110
:100250003F3087000800B6010A30A500AC00AD00B1
:100260002508A600A700A8002C08A80703138312DE
:100270004C30850086130800640003138316503049
:1002800001050438810068210800031383126630D9
:10029000920003138316F0309200031383128C1024
:1002A00008008B170B178B158B160B110B100313F4
:1002B00083168C14031383128C1008000313831607
:1002C0001614961416150313831206080B10080053
:1002D00003138312063081000B1108006821A20A63
:1002E00022087D3C031D0800A201A603A703A80362
:1002F0000730260603192E140430260603198F2111
:10030000003026060319932108008C10A30A230845
:10031000053C031D0800A3010130AF0608002E10A4
:100320000511851408008510051408000D21112100
:100330003C2145215E2151212B21B221BD21C62125
:10034000D121DA21E521EE21A6219D292E1C0800CC
:100350002F1805152F1C051108002F1805152F1C27
:10036000051108002608A900B0010A30A9020318E7
:10037000B00A0318B629A9070800B1010130A90283
:100380000318B10A0318BF29A90708002708AA0003
:10039000B2010A30AA020318B20A0318CA29AA072E
:1003A0000800B3010130AA020318B30A0318D329C5
:1003B000AA0708002808AB00B4010A30AB020318F2
:1003C000B40A0318DE29AB070800B5010130AB02FF
:1003D0000318B50A0318E729AB0708003108002104
:1003E000B60030080021B70033080021B8003208F9
:1003F0000021B90035080021BA0034080021BB00F3
:10040000080068212F1C312288012418162AA418FC
:10041000112A24191B2AA419202A241A252AA41ACD
:100420002A2A36088700081401302F2A3708870047
:10043000881404302F2A38088700081508302F2A1E
:1004400039088700881510302F2A3A0887000816C7
:1004500020302F2A3B088700881600302F2AA4005E
:0E04600008002E1C08008814081487010800EC
:04400E00D420FF3F7C
:00000001FF
