:060000000A128A11C92951
:100008008B13A000030EA1000B18BF21DF210B19D1
:1000180077218A228C188221210E8300A00E200EBF
:020028000900CD
:100200008A010A1482073F3406345B344F34663463
:100210006D347D3407347F34673400340313831620
:100220000F1408000317831688018901031383162E
:100230008501890187018801061486140615861335
:100240001514951415150313831285018601880171
:1002500089013F3087000800B7010A30A600AD00D1
:10026000AE002608A700A800A9002D08A9070313BF
:1002700083124C3085008613A50125140130C4007B
:100280000A300021BF00C000080064000313831679
:1002900050300105043881007121080003138312D6
:1002A0006630920003138316F0309200031383121A
:1002B0008C1008008B170B178B158B160B110B105E
:1002C000031383168C14031383128C10080003137A
:1002D00083161614961416150313831206080B10B2
:1002E000080003138312063081000B1108007121EE
:1002F000A20A22087D3C031D0800A201A703A8034F
:10030000A90308008C10A30A2308053C031D08005C
:10031000A3010130B00608002F1005118514080054
:10032000851005140230A5002D08A700A800A9001B
:100330002E08A707851185160800AF10851205162F
:100340000800051285150430A5002E08A700A80096
:10035000A9002608A8070513861708002F11861381
:1003600085170800851305170130A5002608A7008A
:10037000A800A9002D08A907051005150800061DED
:10038000C40D0B1020304406031D08000130C400CA
:1003900008000E21122145214E2167215A212C21CE
:1003A00035224022492254225D22682271222518DA
:1003B0000122A518102225191F222E22D029441807
:1003C000EA21C418F1214419F521C419F921441A6C
:1003D000FD2108000910891009110A30BF00C00072
:1003E000080009148910091108000910891409115D
:1003F0000800091089100915080009148914091545
:100400000800251C08000730270603192F140430A4
:10041000270603198C2100302706031990210800B4
:10042000A51C0800073028060319AF14043028065D
:1004300003199D21003028060319A1210800251D5C
:1004400008000730290603192F150430290603195F
:10045000AE21003029060319B22108002F1C080024
:1004600030180515301C051108002708AA00B10135
:100470000A30AA020318B10A0318392AAA07080089
:10048000B2010130AA020318B20A0318422AAA07CD
:1004900008002808AB00B3010A30AB020318B30A06
:1004A00003184D2AAB070800B4010130AB02031852
:1004B000B40A0318562AAB0708002908AC00B50196
:1004C0000A30AC020318B50A0318612AAC07080009
:1004D000B6010130AC020318B60A03186A2AAC0749
:1004E000080032080021B70031080021B8003408A4
:1004F0000021B90033080021BA0036080021BB00F2
:1005000035080021BC003F080021BD004008002143
:10051000BE0008007121301CD22288012418A42AB0
:10052000A4189E2A2419AA2AA419B12A241AB82A7E
:10053000A41ABE2A241BC42AA41BCA2A880137086D
:10054000870008140130D02A8801380887008814F1
:100550000430D02A88013908870008150830D02ACD
:10056000080088013A08870088151030D02A080052
:1005700088013B08870008162030D02A88013C08F3
:10058000870088164030D02A88013D088700081768
:100590008030D02A88013E08870088170030D02A92
:1005A000A40008002F1C08000030B700B8000800A5
:04400E00D420FF3F7C
:00000001FF
