:060000000A128A1190298A
:100008008B13A000030EA1000B196A21C3218C18C1
:0C0018007F21210E8300A00E200E0900A5
:100200008A010A1482073F3406345B344F34663463
:100210006D347D3407347F346734031383160F1431
:1002200008000317831688018901031383168501CB
:100230008901870188010614861406158613151492
:100240009514151503138312850186018801890110
:100250003F3087000800B2010A30A500A800A900BD
:100260002508A600031383124C308500861308006E
:1002700064000313831650300105043881006421A3
:100280000800031383126630920003138316F030C4
:100290009200031383128C1008008B170B178B1519
:1002A0008B160B110B10031383168C14031383127C
:1002B0008C100800031383161614961416150313D6
:1002C000831206080B100800031383120630810006
:1002D0000B1108006421A20A22087D3C031D0800BE
:1002E000A201A6030730260603192A1404302606A5
:1002F000031989210030260603198D2108008C106E
:10030000A30A2308053C031D0800A3010130AB0626
:1003100008002A100511851408008510051408002E
:100320000D211121382141215A214D212B21A821B4
:10033000B321BC219C2197292A1C08002B180515E4
:100340002B1C051108002B1805152B1C0511080086
:100350002608A700AC010A30A7020318AC0A03184C
:10036000AC29A7070800AD010130A7020318AD0AA8
:100370000318B529A70708002D080021B2002C0892
:100380000021B300080064212B1CD7218801241808
:10039000D029A418CB293208870008140130D529A8
:1003A0003308870088140030D529A40008002A1CCF
:0A03B00008008814081487010800F3
:04400E00D420FF3F7C
:00000001FF
