:060000000A128A119D297D
:100008008B13A000030EA1000B19702125228C1858
:0C0018007B21210E8300A00E200E0900A9
:100200008A010A1482073F3406345B344F34663463
:100210006D347D3407347F346734031383160F1431
:1002200008000317831688018901031383168501CB
:100230008901870188010614861406158613151492
:100240009514151503138312850186018801890110
:100250003F3087000800B7010A30A600AD00AE00AD
:100260002608A700A800A9002D08A90703138312D8
:100270004C3085008613A501251408006400031383
:10028000831650300105043881006A2108000313E9
:1002900083126630920003138316F030920003132A
:1002A00083128C1008008B170B178B158B160B11F4
:1002B0000B10031383168C14031383128C10080085
:1002C00003138316161496141615031383120608C7
:1002D0000B10080003138312063081000B11080075
:1002E0006A21A20A22087D3C031D0800A201A7037F
:1002F000A803A90308008C10A30A2308053C031DCA
:100300000800A3010130B00608002F100511851464
:100310000800851005140230A5002D08A700A800CC
:10032000A9002E08A707851185160800AF108512B1
:10033000051608000512851502300D2111213E21F8
:100340004721602153212B21D621E121EA21F521EA
:10035000FE21092212222518B121A518C021CF2182
:10036000A429251C08000730270603192F14043080
:100370002706031985210030270603198921080063
:10038000A51C0800073028060319AF1404302806FE
:10039000031996210030280603199A2108002F1C02
:1003A000080030180515301C051108002708AA00A0
:1003B000B1010A30AA020318B10A0318DA29AA0700
:1003C0000800B2010130AA020318B20A0318E32997
:1003D000AA0708002808AB00B3010A30AB020318D3
:1003E000B30A0318EE29AB070800B4010130AB02D1
:1003F0000318B40A0318F729AB0708002908AC0052
:10040000B5010A30AC020318B50A0318022AAC077A
:100410000800B6010130AC020318B60A03180B2A13
:10042000AC07080032080021B70031080021B800ED
:1004300034080021B90033080021BA003608002131
:10044000BB0035080021BC0008006A21301C5D2279
:10045000880124183B2AA418352A2419412AA419F2
:10046000482A241A4F2AA41A552A880137088700D7
:10047000081401305B2A880138088700881404308A
:100480005B2A880139088700081508305B2A0800B4
:1004900088013A088700881510305B2A0800880117
:1004A0003B088700081620305B2A88013C0887003B
:1004B000881600305B2AA40008002F1C080088144E
:0604C0000814870108008A
:04400E00D420FF3F7C
:00000001FF
