:060000000A128A11B82962
:100008008B13A000030EA1000B19702151228C182C
:0C0018007B21210E8300A00E200E0900A9
:100200008A010A1482073F3406345B344F34663463
:100210006D347D3407347F346734031383160F1431
:1002200008000317831688018901031383168501CB
:100230008901870188010614861406158613151492
:100240009514151503138312850186018801890110
:100250003F3087000800B7010A30A600AD00AE00AD
:100260002608A700A800A9002D08A90703138312D8
:100270004C3085008613A501251408006400031383
:10028000831650300105043881006A2108000313E9
:1002900083126630920003138316F030920003132A
:1002A00083128C1008008B170B178B158B160B11F4
:1002B0000B10031383168C14031383128C10080085
:1002C00003138316161496141615031383120608C7
:1002D0000B10080003138312063081000B11080075
:1002E0006A21A20A22087D3C031D0800A201A7037F
:1002F000A803A90308008C10A30A2308053C031DCA
:100300000800A3010130B00608002F100511851464
:100310000800851005140230A5002D08A700A800CC
:10032000A9002E08A707851185160800AF108512B1
:1003300005160800051285150430A5002E08A70033
:10034000A800A9002608A8070513861708002F1182
:10035000861385170800851305170130A5002608A8
:10036000A700A800A9002D08A90705100515080079
:100370000D2111213E214721602153212B210222F1
:100380000D22162221222A2235223E222518CE2194
:10039000A518DD212519EC21FB21BF29251C08000A
:1003A0000730270603192F14043027060319852167
:1003B00000302706031989210800A51C0800073012
:1003C00028060319AF1404302806031996210030BB
:1003D000280603199A210800251D08000730290660
:1003E00003192F15043029060319A7210030290607
:1003F0000319AB2108002F1C080030180515301C0C
:10040000051108002708AA00B1010A30AA02031842
:10041000B10A0318062AAA070800B2010130AA028D
:100420000318B20A03180F2AAA0708002808AB000D
:10043000B3010A30AB020318B30A03181A2AAB0738
:100440000800B4010130AB020318B40A0318232AD0
:10045000AB0708002908AC00B5010A30AC0203184C
:10046000B50A03182E2AAC070800B6010130AC0209
:100470000318B60A0318372AAC070800320800210F
:10048000B70031080021B80034080021B900330852
:100490000021BA0036080021BB0035080021BC004D
:1004A00008006A21301C892288012418672AA418B0
:1004B000612A24196D2AA419742A241A7B2AA41AE1
:1004C000812A88013708870008140130872A8801AB
:1004D0003808870088140430872A88013908870083
:1004E00008150830872A080088013A08870088150F
:1004F0001030872A080088013B0887000816203042
:10050000872A88013C08870088160030872AA400C3
:0E05100008002F1C080088140814870108003A
:04400E00D420FF3F7C
:00000001FF
