:060000000A128A11EB292F
:100008008B13A000030EA1000B18DC210B197B2118
:100018000B19882155238C189F21210E8300A00ECF
:04002800200E09009D
:100200008A010A1482073F3406345B344F34663463
:100210006D347D3407347F3467340034393403134C
:1002200083160F140800031783168801890103132E
:100230008316850189018701880106148614061535
:100240008613151495141515031383128501860161
:10025000880189010800C0010A30A800B100B2007D
:100260002808A900AA00AB003108AB0703138312CA
:100270004C3085008613A70127140130CC000A30CA
:10028000BF00BE002808B3003108B4003208B50032
:100290000800640003138316503001050438810000
:1002A000752108000313831266309200031383162E
:1002B000F0309200031383128C1008008B170B1779
:1002C0008B158B160B110B10031383168C14031351
:1002D00083128C1008000313831616149614161537
:1002E0000313831206080B10080003138312063051
:1002F00081000B1108004E1808007521A20A22087F
:100300007D3C031D0800A201A903AA03AB0308005A
:100310004E1C08007521A30A2308F43C031D0800A5
:100320003308A8003408B1003508B200CF214C30A2
:1003300085008613B6010130CC004E1008008C10E9
:10034000A50A2508053C031D0800A5010130B706D4
:1003500008003610051185140800851005140230B8
:10036000A7003108A900AA00AB003208A90785112F
:1003700085160800B61085120516080005128515A9
:100380000430A7003208A900AA00AB002808AA0779
:100390000513861708003611861385170800851384
:1003A00005170130A7002808A900AA00AB003108F2
:1003B000AB070510051508000310061DCC0D061C23
:1003C0004D14861CCD140B1020304C06031D080064
:1003D0000130CC0008000F211321492152216B214B
:1003E0005E212B21E022EB22F422FF22082313239B
:1003F0001C232D233C2327189822A718A72227194E
:10040000B622C522CE22D7220622F2294C1811226A
:10041000CC1815224C193622CC1957224C1A7822A6
:100420000800091089100911080009148910091120
:100430000618202286182B223308AC000B10080067
:100440004D1C0800B30A4D1015303306031D08007B
:100450000A30B3000800CD1C0800B303CD100930EA
:100460003306031D08001430B30008000910891476
:1004700009110618412286184C223408AC000B10D2
:1004800008004D1C0800B40A4D1015303406031D39
:1004900008000A30B4000800CD1C0800B403CD10D9
:1004A00009303406031D08001430B4000800091098
:1004B000891009150618622286186D223508AC00CD
:1004C0000B1008004D1C0800B50A4D1015303506FC
:1004D000031D08000A30B5000800CD1C0800B50354
:1004E000CD1009303506031D08001430B500080092
:1004F0000914891409150618802286188C22080010
:100500004D1C08004D104E14FF30850086176730D3
:1005100087003F3088000800CD1C0800CD10280857
:10052000B3003108B4003208B5000130CC00080037
:10053000271C080006302906031936140330290643
:100540000319A921003029060319AD210800A71CB1
:10055000080006302A060319B61403302A060319C8
:10056000BA2100302A060319BE210800271D080001
:1005700006302B060319361503302B060319CB2141
:1005800000302B060319CF210800361C08004E1836
:10059000080037180515371C05110800B61C08009F
:1005A0004E18080037188516371C85120800361DAE
:1005B00008004E18080037188617371C86130800E5
:1005C0002908AD00B8010A30AD020318B80A0318B3
:1005D000E42AAD070800B9010130AD020318B90AD9
:1005E0000318ED2AAD0708002A08AE00BA010A3048
:1005F000AE020318BA0A0318F82AAE070800BB01B6
:100600000130AE020318BB0A0318012BAE07080025
:100610002B08AF00BC010A30AF020318BC0A031854
:100620000C2BAF070800BD010130AF020318BD0A53
:100630000318152BAF0708002C08B000BE010A30C4
:10064000B0020318BE0A0318202BB0074C182B2B3E
:100650004C1A2B2B08000A30BE00BF010130B0023B
:100660000318BF0A03182F2BB0074C183A2B4C1A4B
:100670003A2B08000A30BF0039080021C0003808B2
:100680000021C1003B080021C2003A080021C3003C
:100690003D080021C4003C080021C5003F0800219E
:1006A000C6003E080021C70008004E18080075214A
:1006B000371CA323371CA923371CAF238801261816
:1006C000752BA6186F2B26197B2BA619822B261AA1
:1006D000892BA61A8F2B261B952BA61B9B2B8801DB
:1006E0004008870008140130A12B880141088700C9
:1006F00088140430A12B88014208870008150830AF
:10070000A12B080088014308870088151030A12B11
:10071000080088014408870008162030A12B8801B2
:100720004508870088164030A12B880146088700BD
:1007300008178030A12B88014708870088170030F0
:10074000A12BA6000800361C08000030C000C10024
:100750000800B61C08000030C200C3000800361DA7
:0A07600008000030C400C5000800C6
:04400E00D420FF3F7C
:00000001FF
