:060000000A128A1100291A
:1002000003178316880189010313831605148514C7
:1002100005158515051686018701880183120313CC
:10022000850186018701880105182921051C2B21DC
:1002300085183221851C342105193C21051D3E21DC
:1002400085194521851D4721051A4F21051E51217C
:10025000142920140800201C0800860A061A8601AA
:10026000A0010800A0140800A01C080086030F309D
:10027000861B8600A001080020150800201D08002C
:10028000870A071A8701A0010800A0150800A01D11
:10029000080087030F30871B8700A0010800201685
:1002A0000800201E0800060807078800A0010800B3
:04400E00D120FF3F7F
:00000001FF
