:020000040000FA
:060000000A128A1110280B
:10000800FE00030EF2000A08F300831203137F08B0
:10001800F4000A128A11422F0A128A111328831631
:1000280003130A128A11EA270A128A11AD000A126A
:100038008A11EB270A128A11AE000A128A11EC27DC
:100048000A128A11AF000A128A11ED270A128A11C0
:10005800B000A001A101A201A301A401A501A6016C
:10006800A70183120313E901EA01EB01EC01ED0199
:10007800EE01F501F601F701F80183010A128A1170
:10008800A62B8312031331088039B6003608BB004B
:100098003108B6003607B7003708C100B01F552829
:1000A800562857284114410803195B285C286B28F7
:1000B800410A031D6028612869280030B10000301A
:1000C800B0000030AF000030AE00B0177328003029
:1000D800B1000030B0000030AF000030AE0035088D
:1000E8008039B6003608BB063508B6003607B700B3
:1000F8003708BC00B41F8128822883283C143C0898
:1001080003198728882897283C0A031D8C288D28DE
:1001180095280030B5000030B4000030B30000303E
:10012800B200B4179F280030B5000030B40000308A
:10013800B3000030B2003C080319A328A428A9285A
:100148004108031DA828A928B2280030B1000030B2
:10015800B0000030AF000030AE00A52B2E08B6006E
:100168003608A00034080A128A11C1270A128A1117
:10017800831203132108C7002008C6004608B600EA
:10018800B701B801B9013908C0003808BF003708FD
:10019800BE003608BD004708B600B701B801B9016E
:1001A8003908C5003808C4003708C3003608C2003B
:1001B8002F08B6003608A00033080A128A11C12792
:1001C8000A128A11831203132108C7002008C600E7
:1001D8004608B600B701B801B9013608BD073708A7
:1001E80003110318013E0319FA28BE073808031142
:1001F8000318013E03190129BF0739080311031821
:10020800013E03190829C0074708B600B701B8011D
:10021800B9013608C207370803110318013E03194C
:100228001629C307380803110318013E03191D29AD
:10023800C407390803110318013E03192429C50707
:100248003008B6003608A00032080A128A11C12701
:100258000A128A11831203132108C7002008C60056
:100268004608B600B701B801B9013608BD07370816
:1002780003110318013E03194229BE073808031168
:100288000318013E03194929BF0739080311031848
:10029800013E03195029C0074708B600B701B80145
:1002A800B9013608C207370803110318013E0319BC
:1002B8005E29C307380803110318013E031965298D
:1002C800C407390803110318013E03196C29C5072F
:1002D8000830B6000310BD0DBE0DBF0DC00DB60B26
:1002E8006E292F08B6003608A00032080A128A11B3
:1002F800C1270A128A11831203132108C700200894
:10030800C6004608B6004708B700B801B901360864
:10031800BD07370803110318013E03199429BE07C6
:10032800380803110318013E03199B29BF07390830
:1003380003110318013E0319A229C0072E08B600AD
:100348003608A00033080A128A11C1270A128A1136
:10035800831203132108C7002008C6004608B60008
:100368004708B700B801B9013608BD0737080311B7
:100378000318013E0319C129BE07380803110318E1
:10038800013E0319C829BF07390803110318013EA4
:100398000319CF29C0070830B6000310BD0DBE0DE4
:1003A800BF0DC00DB60BD1292E08B6003608A00027
:1003B80032080A128A11C1270A128A1183120313FA
:1003C8002108C7002008C6004608B6004708B7003D
:1003D800B801B9013608BD07370803110318013EF3
:1003E8000319F729BE07380803110318013E03193A
:1003F800FE29BF07390803110318013E0319052A0E
:10040800C0072F08B6003608A00034080A128A115F
:10041800C1270A128A11831203132108C700200872
:10042800C6004608B6004708B700B801B901360843
:10043800C207370803110318013E0319242AC3070A
:10044800380803110318013E03192B2AC407390879
:1004580003110318013E0319322AC5073008B600F4
:100468003608A00033080A128A11C1270A128A1115
:10047800831203132108C7002008C6004608B600E7
:100488004708B700B801B9013608C2073708031191
:100498000318013E0319512AC3073808031103182A
:1004A800013E0319582AC407390803110318013EED
:1004B80003195F2AC5073008B6003608A0003408BB
:1004C8000A128A11C1270A128A11831203132108FA
:1004D800C7002008C6004608B6004708B700B8019C
:1004E800B90108300310B60DB70DB80DB90DFF3EB0
:1004F800031D762A3608C207370803110318013E80
:100508000319872AC307380803110318013E031982
:100518008E2AC407390803110318013E0319952AC6
:10052800C5073D08B6003E08B7003F08B8004008B8
:10053800B90018300310B90CB80CB70CB60CFF3E54
:10054800031D9E2A3608C207370803110318013E07
:100558000319AF2AC307380803110318013E03190A
:10056800B62AC407390803110318013E0319BD2A26
:10057800C5070830B6000310BD0DBE0DBF0DC00D78
:10058800B60BBF2A41083C07B600B701B70D3608BD
:10059800823EC60037080318013EFF3EC700F12A15
:1005A8000130B6000310C20DC30DC40DC50DB60B46
:1005B800D62AC01FE02AE12AE22A42140130B600F6
:1005C8000310BD0DBE0DBF0DC00DB60BE42AFF30E4
:1005D800C6070318C70AFF30C707C41FF42AF52A3D
:1005E800D42ABC01C01FF92AFA2A162BFF303D0570
:1005F800B600FF303E05B700FF303F05B8007F303A
:100608004005B900390838043704360403190D2B9E
:100618000E2B112BBC01BC0A162B421C142B152BBC
:10062800162B0E2B3C0803191A2B1B2B4C2B0130B5
:10063800C207003003180130C30700300318013027
:10064800C407003003180130C507451C2C2B2D2B7F
:100658004C2B4208B6004308B7004408B8004508C8
:10066800B9000130BA00390DB90CB80CB70CB60C8A
:10067800BA0B372B3908C5003808C4003708C3003F
:100688003608C2000130C6070318C70A0030C7077A
:100698004708803AFF0080307F02031D552BFF304A
:1006A8004602031C582B592B642B7F3083120313EB
:1006B800C5008030C4000030C3000030C200992B50
:1006C800831203134708803AFF0080307F02031D1E
:1006D8006F2B013046020318722B732B7F2B0030CF
:1006E80083120313C5000030C4000030C30000307B
:1006F800C200BB01992B831203134608B6003608C3
:10070800C100FF30C205FF30C3057F30C40500308B
:10071800C505411C902B912B922BC4174108B6009C
:100728000310360CB7003708C5003B08B60036087A
:10073800C5044508B1004408B0004308AF004208AA
:10074800AE0008000A128A15C5220A128A11872CDF
:100758000130890083160313250883120313E80068
:1007680083160313240883120313E7000A128A1559
:10077800BA230A128A1183120313061CC42BC52B31
:10078800772C831603132F083004031DCC2BCD2B95
:10079800772C672C780883120313A1007708A00030
:1007A8000030A200A3000A128A15A3220A128A1195
:1007B800760883120313A1007508A0000130A20077
:1007C8000030A3000A128A15A3220A128A11831282
:1007D80003136A08A1006908A0000230A2000030D3
:1007E800A3000A128A15A3220A128A11013083165D
:1007F8000313A2000030A300772C78088312031398
:10080800A1007708A0000330A2000030A3000A125C
:100818008A15A3220A128A11760883120313A100EB
:100828007508A0000430A2000030A3000A128A153F
:10083800A3220A128A11831203136A08A100690805
:10084800A0000530A2000030A3000A128A15A322D6
:100858000A128A11023083160313A2000030A30083
:10086800772C780883120313A1007708A0000630BC
:10087800A2000030A3000A128A15A3220A128A11C4
:10088800760883120313A1007508A0000730A200A0
:100898000030A3000A128A15A3220A128A118312B1
:1008A80003136A08A1006908A0000830A2000030FC
:1008B800A3000A128A15A3220A128A1183160313A7
:1008C800A201A301772C2308003A03196C2C772C7A
:1008D8002208003A0319CE2B013A0319012C033AD6
:1008E8000319352C772C03108312061803140030D3
:1008F8000318013083160313AB00AC012B08AF00BB
:100908002C08B000872C83120313061F8C2C8D2C07
:10091800342D861B902C912CAC2B342D0230890061
:10092800061A972C982CC42C861E9B2C9C2CC42C05
:100938000030A000A1000A128A1589220A128A1121
:10094800831203132108F8002008F7000130A000E3
:100958000030A1000A128A1589220A128A1183120C
:100968000313200895000230A0000030A1000A12ED
:100978008A1589220A128A118312031320089B0000
:10098800061EC72CC82CF52C861ACB2CCC2CF52C83
:100998000330A0000030A1000A128A1589220A1229
:1009A8008A11831203132108F8002008F700043085
:1009B800A0000030A1000A128A1589220A128A11A1
:1009C80083120313200895000530A0000030A10011
:1009D8000A128A1589220A128A118312031320081F
:1009E8009B00061AF82CF92C262D861AFC2CFD2CB7
:1009F800262D0630A0000030A1000A128A1589228F
:100A08000A128A11831203132108F8002008F7003C
:100A18000730A0000030A1000A128A1589220A12A4
:100A28008A1183120313200895000830A0000030B3
:100A3800A1000A128A1589220A128A118312031345
:100A480020089B0003108618031400300318013097
:100A580083160313AB00AC012B08AD002C08AE00C5
:100A68008312061B382D392D792E861B3C2D3D2DE2
:100A7800922C792E043089008801612E013083126E
:100A8800031388006D08D03EA0006E080318013ECD
:100A9800FF3EA100A201A11BA2032208A30001306E
:100AA8000A128A1186260A128A118312031323084E
:100AB800B5002208B4002108B3002008B2003F3076
:100AC800B1008C30B000CC30AF00CD30AE000A128F
:100AD8008A1145200A128A11831203133108CF00A4
:100AE8003008CE002F08CD002E08CC004030CB00B7
:100AF800A030CA000030C9000030C8000A128A15A8
:100B080078250A128A11831203134B08DF004A085A
:100B1800DE004908DD004808DC000A128A153E2379
:100B28000A128A11831203135D08F8005C08F700A3
:100B3800792E02308312031388006D08D03EA0007E
:100B48006E080318013EFF3EA100A201A11BA203EB
:100B58002208A30001300A128A1186260A128A1175
:100B6800831203132308B5002208B4002108B30038
:100B78002008B2004030B100D130B0009930AF0049
:100B88009A30AE000A128A1145200A128A1183127D
:100B980003133108CF003008CE002F08CD002E08EF
:100BA800CC004130CB00F830CA000030C90000301A
:100BB800C8000A128A1578250A128A1183120313AB
:100BC8004B08DF004A08DE004908DD004808DC0061
:100BD8000A128A153E230A128A11831203135C082B
:100BE8009B00792E03308312031388006D08D03ED2
:100BF800A0006E080318013EFF3EA100A201A11B40
:100C0800A2032208A30001300A128A1186260A12BA
:100C18008A11831203132308B5002208B40021089F
:100C2800B3002008B2004130B1001E30B0001430CB
:100C3800AF007B30AE000A128A1145200A128A11D1
:100C4800831203133108CF003008CE002F08CD00DF
:100C58002E08CC004130CB00F830CA000030C90063
:100C68000030C8000A128A1578250A128A118312E0
:100C780003134B08DF004A08DE004908DD00480876
:100C8800DC000A128A153E230A128A118312031302
:100C98005C089500792E0F30A6000030A7000430BC
:100CA800831203138800792E0A30A6000030A700AB
:100CB8000530831203138800792E83160313210845
:100CC800003A0319682E792E2008613A0319422D3B
:100CD800033A03199D2D013A0319F62D073A031912
:100CE8004F2E013A0319582E792E8312061F7D2E96
:100CF8007E2E872C861F812E822E3E2D872C0A124F
:100D08008A11102883120313A800280803198D2EAE
:100D18008E2EA22EA31F912E922EA22E2009AA005B
:100D28002109AB002209AC002309AD00AA0A031966
:100D3800AB0A0319AC0A0319AD0AAA2E2308AD00A1
:100D48002208AC002108AB002008AA0023082204CE
:100D580021042004031DB12EB22EBB2E0030A300A7
:100D68000030A2000030A1000030A000412F9630D2
:100D7800A4002408A900CD2E0130A4002408A90746
:100D880001300310AD0CAC0CAB0CAA0CFF3E031DDC
:100D9800C52EFE302D05031DD22ED32EC02EEF2ECC
:100DA8000130A4002408A9070130AA07003003185D
:100DB8000130AB07003003180130AC0700300318CE
:100DC8000130AD0701300310AD0CAC0CAB0CAA0C14
:100DD800FF3E031DE72EFF302D05031DF42EF52ED3
:100DE800D42E012F0130A9020130A4000310AA0D4E
:100DF800AB0DAC0DAD0DA40BFA2EAC1B042F052FBB
:100E08000B2F0230290203180A2F0B2FF62E291850
:100E18000E2F0F2F172FFF30AA05FF30AB057F309D
:100E2800AC05FF30AD050310A90C2908A400A501E5
:100E3800A601A70118300310A40DA50DA60DA70D36
:100E4800FF3E031D1F2F2408AA042508AB0426080B
:100E5800AC042708AD0428080319332F342F392F81
:100E6800A31F372F382F392FAD172D08A3002C08B3
:100E7800A2002B08A1002A08A00008008B130B1D54
:100E8800462F472F852FCE3081000130EB070318FE
:100E9800EC0A0030EC076C08803AFF0080307F02D3
:100EA800031D582F19306B02031C5B2F5C2F602F1A
:100EB80083120313EB01EC017808831203136C020D
:100EC800031D682F77086B02031C6B2F6C2F6E2F86
:100ED80087116F2F871583160313270883120313AF
:100EE8006C02031D7D2F8316031326088312031338
:100EF8006B02031C802F812F832F0710842F071468
:100F08000B110C1F882F892F952F1E08F000F10157
:100F1800700883160313A4007108A5008312031335
:100F28000C138C1E982F992FB62F61301A02031CB0
:100F38009E2F9F2FAF2F66301A020318A42FA52FBC
:100F4800AF2F1A08F000F101700883160313A000F0
:100F58007108A100B62F1A08F000F1017008ED0021
:100F68007108EE008B1774088312FF0073088A005B
:100F7800720E8300FE0E7E0E090083120313A80072
:100F8800A401A5012008A200A3012208A6002308A5
:100F9800A700281CD02FD12FD72F2608A407031865
:100FA800A50A2708A50701300310A60DA70DFF3EC7
:100FB800031DD82F0310A80C2808031DE42FE52FC4
:100FC800CD2F2508A1002408A00008000134003412
:040FD80001340034AC
:10151200831203132008831203178D008316031707
:101522008C130C14831203170C0883120313A200EA
:10153200A3012208A4002308A5002508A10024086D
:10154200A0000800831203132208831203178D00E0
:10155200831203132008831203178C0083160317C8
:101562008C130C158B1355308D00AA308D008C1402
:10157200831203130D1EBE2ABF2AB92A0D12831627
:1015820003170C118B170800073083160317880006
:10159200013089000F3083160313850080308700E5
:1015A20088018901F73086008312031385018601C1
:1015B200870188018901831603130F178F160F12F3
:1015C2000F1440308100CE30831203138100F330B8
:1015D200831603139500F3309600FF308312031332
:1015E2009200BB308316031392000C308312031354
:1015F20097001D149D141D159D151D129D121F147B
:10160200C3309F05203083120313A000A00B072BC9
:101612000000831203131F083F3940389F008316CE
:1016220003139F131F129F128B178B160B110C178C
:10163200831203130C138B110B100B178316031356
:101642008C16831203138C12831603139816181226
:1016520083120313981783160313181383120313A9
:1016620018161813831603178711193083160313DC
:10167200990001309A001815080003108312031311
:101682005E0D5F0DE0006008E6006608031D4A2B50
:101692004B2B542B0030DF000030DE000030DD0029
:1016A2000030DC00B92B5C08E0005D08E1005E0858
:1016B200E2005F08E3001F300310E30CE20CE10CD0
:1016C200E00CFF3E031D5D2B6008E4006408E500AA
:1016D200DE17FF30DC05FF30DD05FF30DE050030B0
:1016E200DF059630E602E61F772B782B922B6608F1
:1016F200803A973E03187E2B7F2B802B4B2B013099
:101702000310DF0CDE0CDD0CDC0CFF3E031D812B15
:101712000130E0006008E607031D902B912B802B1F
:10172200A92B20306602031C972B982BA42B4B2B42
:101732000130E0000310DC0DDD0DDE0DDF0DE00BEE
:101742009B2B0130E6026608031DA82BA92B992BBF
:1017520065080319AD2BAE2BB92BDC09DD09DE09B7
:10176200DF09DC0A0319DD0A0319DE0A0319DF0A9D
:1017720008005A2D831203136708A0006808A1000D
:101782000030A11BFF30A200A30001300A128A110F
:1017920086260A128A15831203132308B50022082B
:1017A200B4002108B3002008B2003D30B1001B3064
:1017B200B000A530AF00E330AE000A128A11452016
:1017C2000A128A15831203133108CF003008CE00A3
:1017D2002F08CD002E08CC004030CB00A030CA002C
:1017E2000030C9000030C8000A128A1578250A1292
:1017F2008A15831203134B08DF004A08DE004908EA
:10180200DD004808DC000A128A153E230A128A15F6
:10181200831203135D08F8005C08F7001F08C33940
:1018220004389F00203083160313A800A80B172C3E
:101832000000831203139F14772D8312031367088A
:10184200A0006808A1000030A11BFF30A200A30085
:1018520001300A128A1186260A128A15831203138C
:101862002308B5002208B4002108B3002008B20002
:101872003E30B100F030B000A330AF00D730AE0040
:101882000A128A1145200A128A158312031331089B
:10189200CF003008CE002F08CD002E08CC004130FA
:1018A200CB00F830CA000030C9000030C8000A126C
:1018B2008A1578250A128A15831203134B08DF0052
:1018C2004A08DE004908DD004808DC000A128A15D1
:1018D2003E230A128A15831203135D08F6005C0880
:1018E200F500750895001F08C33908389F0020309D
:1018F20083160313A800A80B7C2C00008312031389
:101902009F14772D831203136708A0006808A100B3
:101912000030A11BFF30A200A30001300A128A117D
:1019220086260A128A15831203132308B500220899
:10193200B4002108B3002008B2003E30B1006B3081
:10194200B0008530AF001F30AE000A128A11452068
:101952000A128A15831203133108CF003008CE0011
:101962002F08CD002E08CC004130CB00F830CA0041
:101972000030C9000030C8000A128A1578250A1200
:101982008A15831203134B08DF004A08DE00490858
:10199200DD004808DC000A128A153E230A128A1565
:1019A200831203135D08EA005C08E90069089B00E2
:1019B2001F08C33920389F00203083160313A80064
:1019C200A80BE12C0000831203139F14772D8312BE
:1019D20003136808803AFF0080307F02031DF32C56
:1019E20034306702031CF62CF72C0D2D83120313DF
:1019F2006808803AFF0080307F02031D022DB43058
:101A020067020318052D062D0D2D0C3083160313C6
:101A1200A6000030A7004B2D83120313E81B122DE2
:101A2200132D272D6808803AFF0080307F02031DA6
:101A32001C2D3430670203181F2D202D272D0A304C
:101A420083160313A6000030A7004B2D8312031345
:101A52006808803AFF0080307F02031D322DB430C7
:101A62006702031C352D362D4B2D83120313680894
:101A7200803AFF0081307F02031D412D0030670252
:101A82000318442D452D4B2D0F3083160313A6004A
:101A92000030A700C330831203139F052030831642
:101AA2000313A800A80B532D0000831203139F14E5
:101AB200772D831203131F0C83160313A800280C1F
:101AC2000F39A900AA012A08003A0319692D772DB6
:101AD2002908003A0319BB2B013A03191E2C033AB9
:101AE2000319832C0A3A0319E82C772D0800831274
:101AF20003134B088039D0005008D8004B08D0009F
:101B02005007D1005108DA00CA1F882D892D8A2D6D
:101B12005A145A0803198E2D8F2D9F2D5A0A031D10
:101B2200932D942D9C2D0030CB000030CA00003044
:101B3200C9000030C800CA17CB01A72D0030CB0066
:101B42000030CA000030C9000030C8004F08803998
:101B5200D0005008D900590858060319B12DB22DEA
:101B6200B32D58174F08D0005007D1005108D900A3
:101B7200CE1FBC2DBD2DBE2D591459080319C22DDF
:101B8200C32DD32D590A031DC72DC82DD02D0030CA
:101B9200CF000030CE000030CD000030CC00CE1798
:101BA200CF01DB2D0030CF000030CE000030CD0061
:101BB2000030CC005A0859020318E02DE12D252EE1
:101BC200581FE42DE52DE92D8030D0005008D806AD
:101BD2005A08D0005008DB005908D0005008DA003B
:101BE2005B08D0005008D9004808D0005008DB003C
:101BF2004C08D0005008C8005B08D0005008CC0048
:101C02004908D0005008DB004D08D0005008C90038
:101C12005B08D0005008CD004A08D0005008DB0015
:101C22004E08D0005008CA005B08D0005008CE0011
:101C32004B08D0005008DB004F08D0005008CB0002
:101C42005B08D0005008CF00DB015908D000D10159
:101C52005108D3005A085002D200031CD303530880
:101C6200803AFF0080307F02031D392E1A30520263
:101C7200031C3C2E3D2E7A2E831203134B084A047A
:101C820049044804031D462E482E0130492E0030D7
:101C9200D0005008DB000030CB000030CA0000301A
:101CA200C9000030C8005908D0005008DA00822E5E
:101CB2005B1C5C2E5D2E662E5B08D0000310500C60
:101CC2000138D1005108DB00682E0310DB0C481CE0
:101CD2006B2E6C2E6D2EDB170130D0004B0DCB0C12
:101CE200CA0CC90CC80CD00B6F2E0130D0005008A2
:101CF200DA078312031359085A02031C812E822E1B
:101D0200592E581B852E862ED12E5A08031D8A2E37
:101D12008B2E942E0030CB000030CA000030C90058
:101D22000030C800FF2F4C08C8074D0803110318E4
:101D3200013E03199D2EC9074E0803110318013EE7
:101D42000319A42ECA074F0803110318013E0319F1
:101D5200AB2ECB074B1CAE2EAF2E852F5B1CB22EAB
:101D6200B32EBC2E5B08D0000310500C0138D100FA
:101D72005108DB00BE2E0310DB0C481CC12EC22E04
:101D8200C32EDB170130D0004B0DCB0CCA0CC90C93
:101D9200C80CD00BC52E0130D0005008DA07852FB1
:101DA2004B08803AFF004F08803A7F02031DE32E62
:101DB2004E084A02031DE32E4D084902031DE32E7D
:101DC2004C0848020318E62EE72E3F2FFF30D000C2
:101DD200FF30D100FF30D200FF30D3004C08D400D6
:101DE2004D08D5004E08D6004F08D7004808D40247
:101DF2004908031C490FFE2EFF2ED5024A08031C78
:101E02004A0F042F052FD6024B08031C4B0F0A2F33
:101E12000B2FD7025408D00755080318550F122F5D
:101E2200132FD10756080318560F182F192FD20750
:101E320057080318570AD3075308CB005208CA00A1
:101E42005108C9005008C8008030D0005008D80698
:101E5200DB09DB0A5B08031D2F2F302F4D2F0130CA
:101E6200C807003003180130C907003003180130D9
:101E7200CA07003003180130CB074D2F4C08C802A7
:101E82004D08031C4D0FC9024E08031C4E0FCA0217
:101E92004F08031C4F0FCB024B084A044904480465
:101EA200031D542F552F812F5B08031D592F5A2FC5
:101EB200812F0030CB000030CA000030C900003052
:101EC200C800FF2F0130D0000310C80DC90DCA0D84
:101ED200CB0DD00B652FDB1F6F2F702F712F481486
:101EE2005B1C742F752F782F0314DB0D7A2F0310D0
:101EF200DB0D5A0803197E2F7F2F812F0130DA0262
:101F0200CA1F842F852F632FD901DB1F892F8A2FA8
:101F1200982F5B087F3903198F2F902F932FD901A8
:101F2200D90A982F481C962F972F982F902F59082F
:101F320003199C2F9D2FD12F0130C80700300318A1
:101F42000130C907003003180130CA0700300318F6
:101F52000130CB074B1CAE2FAF2FD12F4808D0003A
:101F62004908D1004A08D2004B08D3000130D400FE
:101F7200530DD30CD20CD10CD00CD40BB92F530867
:101F8200CB005208CA005108C9005008C8005A0ABA
:101F92000319CC2FCD2FD12F0130D0005008DA07F2
:101FA2005A0A0319D52FD62FDB2F5A08031DDA2F11
:101FB200DB2FE92F0030CB000030CA000030C9000F
:101FC2000030C8005A08031DE72FE82FE92FD80177
:101FD2005A1CEC2FED2FEF2FCA17F32F7F30D000B2
:101FE2005008CA055A08D0000310500CD1005108FD
:0E1FF200CB00D81FFD2FFE2FFF2FCB170800AE
:04400E00D520FF3F7B
:00000001FF
