:020000040000FA
:060000000A128A1110280B
:10000800FE00030EF7000A08F800831203137F08A6
:10001800F9000A128A11712F0A128A1113288316FD
:1000280003130A128A11FA270A128A11B5000A1252
:100038008A11FB270A128A11B6000A128A11FC27B4
:100048000A128A11B7000A128A11FD270A128A11A8
:10005800B800A001A101A201A301A401A501A60164
:10006800A701A801A901AA01AB01AC01AD01AE012C
:1000780083120313E901EA01EB01EC01ED01EE0142
:10008800F001F101F201F301F40183010A128A116E
:10009800AE2B8312031331088039B6003608BB0033
:1000A8003108B6003607B7003708C100B01F5D2811
:1000B8005E285F28411441080319632864287328BF
:1000C800410A031D6828692871280030B1000030F2
:1000D800B0000030AF000030AE00B0177B28003011
:1000E800B1000030B0000030AF000030AE0035087D
:1000F8008039B6003608BB063508B6003607B700A3
:100108003708BC00B41F89288A288B283C143C086F
:1001180003198F2890289F283C0A031D94289528A6
:100128009D280030B5000030B4000030B300003026
:10013800B200B417A7280030B5000030B400003072
:10014800B3000030B2003C080319AB28AC28B12832
:100158004108031DB028B128BA280030B10000308A
:10016800B0000030AF000030AE00AD2B2E08B60056
:100178003608A00034080A168A11D7270A128A11ED
:10018800831203132108C7002008C6004608B600DA
:10019800B701B801B9013908C0003808BF003708ED
:1001A800BE003608BD004708B600B701B801B9015E
:1001B8003908C5003808C4003708C3003608C2002B
:1001C8002F08B6003608A00033080A168A11D72768
:1001D8000A128A11831203132108C7002008C600D7
:1001E8004608B600B701B801B9013608BD07370897
:1001F80003110318013E03190229BE073808031129
:100208000318013E03190929BF0739080311031808
:10021800013E03191029C0074708B600B701B80105
:10022800B9013608C207370803110318013E03193C
:100238001E29C307380803110318013E031925298D
:10024800C407390803110318013E03192C29C507EF
:100258003008B6003608A00032080A168A11D727D7
:100268000A128A11831203132108C7002008C60046
:100278004608B600B701B801B9013608BD07370806
:1002880003110318013E03194A29BE073808031150
:100298000318013E03195129BF0739080311031830
:1002A800013E03195829C0074708B600B701B8012D
:1002B800B9013608C207370803110318013E0319AC
:1002C8006629C307380803110318013E03196D296D
:1002D800C407390803110318013E03197429C50717
:1002E8000830B6000310BD0DBE0DBF0DC00DB60B16
:1002F80076292F08B6003608A00032080A168A1197
:10030800D7270A128A11831203132108C70020086D
:10031800C6004608B6004708B700B801B901360854
:10032800BD07370803110318013E03199C29BE07AE
:10033800380803110318013E0319A329BF07390818
:1003480003110318013E0319AA29C0072E08B60095
:100358003608A00033080A168A11D7270A128A110C
:10036800831203132108C7002008C6004608B600F8
:100378004708B700B801B9013608BD0737080311A7
:100388000318013E0319C929BE07380803110318C9
:10039800013E0319D029BF07390803110318013E8C
:1003A8000319D729C0070830B6000310BD0DBE0DCC
:1003B800BF0DC00DB60BD9292E08B6003608A0000F
:1003C80032080A168A11D7270A128A1183120313D0
:1003D8002108C7002008C6004608B6004708B7002D
:1003E800B801B9013608BD07370803110318013EE3
:1003F8000319FF29BE07380803110318013E031922
:10040800062ABF07390803110318013E03190D2AEC
:10041800C0072F08B6003608A00034080A168A114B
:10042800D7270A128A11831203132108C70020084C
:10043800C6004608B6004708B700B801B901360833
:10044800C207370803110318013E03192C2AC307F2
:10045800380803110318013E0319332AC407390861
:1004680003110318013E03193A2AC5073008B600DC
:100478003608A00033080A168A11D7270A128A11EB
:10048800831203132108C7002008C6004608B600D7
:100498004708B700B801B9013608C2073708031181
:1004A8000318013E0319592AC30738080311031812
:1004B800013E0319602AC407390803110318013ED5
:1004C8000319672AC5073008B6003608A0003408A3
:1004D8000A168A11D7270A128A11831203132108D0
:1004E800C7002008C6004608B6004708B700B8018C
:1004F800B90108300310B60DB70DB80DB90DFF3EA0
:10050800031D7E2A3608C207370803110318013E67
:1005180003198F2AC307380803110318013E03196A
:10052800962AC407390803110318013E03199D2AA6
:10053800C5073D08B6003E08B7003F08B8004008A8
:10054800B90018300310B90CB80CB70CB60CFF3E44
:10055800031DA62A3608C207370803110318013EEF
:100568000319B72AC307380803110318013E0319F2
:10057800BE2AC407390803110318013E0319C52A06
:10058800C5070830B6000310BD0DBE0DBF0DC00D68
:10059800B60BC72A41083C07B600B701B70D3608A5
:1005A800823EC60037080318013EFF3EC700F92AFD
:1005B8000130B6000310C20DC30DC40DC50DB60B36
:1005C800DE2AC01FE82AE92AEA2A42140130B600C6
:1005D8000310BD0DBE0DBF0DC00DB60BEC2AFF30CC
:1005E800C6070318C70AFF30C707C41FFC2AFD2A1D
:1005F800DC2ABC01C01F012B022B1E2BFF303D053E
:10060800B600FF303E05B700FF303F05B8007F3029
:100618004005B90039083804370436040319152B86
:10062800162B192BBC01BC0A1E2B421C1C2B1D2B84
:100638001E2B162B3C080319222B232B542B01307D
:10064800C207003003180130C30700300318013017
:10065800C407003003180130C507451C342B352B5F
:10066800542B4208B6004308B7004408B8004508B0
:10067800B9000130BA00390DB90CB80CB70CB60C7A
:10068800BA0B3F2B3908C5003808C4003708C30027
:100698003608C2000130C6070318C70A0030C7076A
:1006A8004708803AFF0080307F02031D5D2BFF3032
:1006B8004602031C602B612B6C2B7F3083120313C3
:1006C800C5008030C4000030C3000030C200A12B38
:1006D800831203134708803AFF0080307F02031D0E
:1006E800772B0130460203187A2B7B2B872B00309F
:1006F80083120313C5000030C4000030C30000306B
:10070800C200BB01A12B831203134608B6003608AA
:10071800C100FF30C205FF30C3057F30C40500307B
:10072800C505411C982B992B9A2BC4174108B60074
:100738000310360CB7003708C5003B08B60036086A
:10074800C5044508B1004408B0004308AF0042089A
:10075800AE0008000A128A1527200A128A110D2CE9
:10076800063089000A128A158F230A128A11831209
:100778000313990083160313290883120313E8004F
:1007880083160313280883120313E7000A128A1535
:10079800C9210A128A1183120313061CD42BD52BE4
:1007A800FC2B8316031337083804031DDC2BDD2BC1
:1007B800FC2B831203136E08A5006D08A4006C08B7
:1007C800A7006B08A6006A08A9006908A800831694
:1007D80003132B0883120313AB00831603132A0891
:1007E80083120313AA000A128A151C210A128A11FD
:1007F8000310831203130618031400300318013082
:1008080083160313B300B4013308B7003408B800E3
:100818000D2C83120313061F122C132CBA2C861BC3
:10082800162C172CB42BBA2C05308900061A1D2C4F
:100838001E2C4A2C861E212C222C4A2C0030A0006B
:10084800A1000A168A11BD270A128A1183120313FE
:100858002108EE002008ED000130A0000030A100C2
:100868000A168A11BD270A128A1183120313200857
:1008780095000230A0000030A1000A168A11BD2799
:100888000A128A118312031320089B00061E4D2C9E
:100898004E2C7B2C861A512C522C7B2C0330A0001A
:1008A8000030A1000A168A11BD270A128A11831284
:1008B80003132108EE002008ED000430A0000030EA
:1008C800A1000A168A11BD270A128A11831203137E
:1008D800200895000530A0000030A1000A168A11F2
:1008E800BD270A128A118312031320089B00061AD7
:1008F8007E2C7F2CAC2C861A822C832CAC2C0630B8
:10090800A0000030A1000A168A11BD270A128A1118
:10091800831203132108EE002008ED000730A00021
:100928000030A1000A168A11BD270A128A11831203
:100938000313200895000830A0000030A1000A1613
:100948008A11BD270A128A118312031320089B00FB
:10095800031086180314003003180130831603139C
:10096800B300B4013308B5003408B6008312061B7F
:10097800BE2CBF2CA82E861BC22CC32C182CA82E2C
:10098800033089000A128A158F230A128A118312EA
:1009980003139900842E7308D03E83120313A0001A
:1009A80074080318013EFF3EA100A201A11BA20387
:1009B8002208A30001300A128A11B5260A128A11E8
:1009C800831203132308B5002208B4002108B300DA
:1009D8002008B2003F30B1008C30B000CC30AF00FE
:1009E800CD30AE000A128A114D200A128A118312E4
:1009F80003133108CF003008CE002F08CD002E0891
:100A0800CC004030CB00A030CA000030C900003014
:100A1800C8000A128A1578250A128A11831203134C
:100A28004B08DF004A08DE004908DD004808DC0002
:100A38000A128A15A0200A128A11831203135D086C
:100A4800EE005C08ED00A82E7308D03E8312031355
:100A5800A00074080318013EFF3EA100A201A11BDB
:100A6800A2032208A30001300A128A11B5260A122D
:100A78008A11831203132308B5002208B400210841
:100A8800B3002008B2004030B100D130B000993036
:100A9800AF009A30AE000A128A114D200A128A114C
:100AA800831203133108CF003008CE002F08CD0081
:100AB8002E08CC004130CB00F830CA000030C90005
:100AC8000030C8000A128A1578250A128A11831282
:100AD80003134B08DF004A08DE004908DD00480818
:100AE800DC000A128A15A0200A128A118312031345
:100AF8005D08EA005C08E90069089B00A82E7408F4
:100B0800B4007308B3000310B30DB40D0310B30D94
:100B1800B40D0310B30DB40D3308CB3E8312031389
:100B2800EB008316031334080318013EFE3E8312BC
:100B38000313EC006B089500A82E043083120313EE
:100B48008800C12D023083120313880009308316F0
:100B58000313AA000030AB00A82E0C30AA00003006
:100B6800AB00A82E01308312031388000F308316C0
:100B78000313AA000030AB00A82E7308D03E8316DA
:100B88000313B30074080318013EFF3EB400340891
:100B9800003A0319D02DA82E3308003A0319A62DC0
:100BA800013A0319B12D033A0319B62DA82E831261
:100BB80003136E08A5006D08A4006C08A7006B0855
:100BC800A6006A08A9006908A800831603132B0861
:100BD80083120313AB00831603132A08831203132B
:100BE800AA000A128A151C210A128A11603083167B
:100BF8000313A4000030A500A82E003083120313AD
:100C0800A000A1000A168A11BD270A128A118312B0
:100C180003132108EE002008ED000130A000003089
:100C2800A1000A168A11BD270A128A11831203131A
:100C3800200895000230A0000030A1000A168A1191
:100C4800BD270A128A118312031320089B00A82EBD
:100C5800033083120313A0000030A1000A168A1182
:100C6800BD270A128A11831203132108EE002008F7
:100C7800ED000430A0000030A1000A168A11BD273B
:100C88000A128A1183120313200895000530A00068
:100C98000030A1000A168A11BD270A128A11831290
:100CA800031320089B00A82E063083120313A0000C
:100CB8000030A1000A168A11BD270A128A11831270
:100CC80003132108EE002008ED000730A0000030D3
:100CD800A1000A168A11BD270A128A11831203136A
:100CE800200895000830A0000030A1000A168A11DB
:100CF800BD270A128A118312031320089B00A82E0D
:100D0800831603132508003A03198B2EA82E2408EE
:100D1800603A0319A82E013A0319CF2C033A031994
:100D2800282D013A0319832D073A0319A12D013AF9
:100D38000319DB2D033A0319012E013A03192C2E4E
:100D48000F3A0319582EA82E8312061FAC2EAD2E6B
:100D58000D2C861FB02EB12EC42C0D2C0A128A1110
:100D6800102883120313A80028080319BC2EBD2ECF
:100D7800D12EA31FC02EC12ED12E2009AA002109D1
:100D8800AB002209AC002309AD00AA0A0319AB0A7B
:100D98000319AC0A0319AD0AD92E2308AD0022089D
:100DA800AC002108AB002008AA0023082204210473
:100DB8002004031DE02EE12EEA2E0030A3000030AF
:100DC800A2000030A1000030A000702F9630A400CF
:100DD8002408A900FC2E0130A4002408A90701302A
:100DE8000310AD0CAC0CAB0CAA0CFF3E031DF42E8B
:100DF800FE302D05031D012F022FEF2E1E2F01306F
:100E0800A4002408A9070130AA07003003180130FC
:100E1800AB07003003180130AC070030031801306D
:100E2800AD0701300310AD0CAC0CAB0CAA0CFF3EA7
:100E3800031D162FFF302D05031D232F242F032FED
:100E4800302F0130A9020130A4000310AA0DAB0D08
:100E5800AC0DAD0DA40B292FAC1B332F342F3A2F1B
:100E6800023029020318392F3A2F252F29183D2F30
:100E78003E2F462FFF30AA05FF30AB057F30AC056B
:100E8800FF30AD050310A90C2908A400A501A6018F
:100E9800A70118300310A40DA50DA60DA70DFF3E40
:100EA800031D4E2F2408AA042508AB042608AC0409
:100EB8002708AD0428080319622F632F682FA31F82
:100EC800662F672F682FAD172D08A3002C08A200E6
:100ED8002B08A1002A08A00008008B130B1D752FF2
:100EE800762FBE2FCE308100013083160313AC0756
:100EF8000318AD0A0030AD072D08803AFF00803096
:100F08007F02031D892F19302C02031C8C2F8D2F73
:100F1800912F83160313AC01AD01831203136E08DE
:100F2800831603132D02031D9F2F831203136D08CD
:100F3800831603132C02031CA22FA32FA72F83129F
:100F480003138711AA2F831203138715831603131C
:100F58002B082D02031DB22F2A082C02031CB52FC3
:100F6800B62FBA2F831203130710BD2F8312031352
:100F780007140B110C1FC12FC22FCE2F1E08F5000E
:100F8800F601750883160313A8007608A9008312D2
:100F980003130C138C1ED12FD22FEF2F61301A029E
:100FA800031CD72FD82FE82F69301A020318DD2F1A
:100FB800DE2FE82F1A08F500F601750883160313CB
:100FC800A4007608A500EF2F1A08F500F6017508A9
:100FD800F3007608F4008B1779088312FF0078086D
:100FE8008A00770E8300FE0E7E0E0900013400345D
:040FF800013400348C
:10100A00831203132208831203178D00831203131A
:10101A002008831203178C00831603178C130C15F0
:10102A008B1355308D00AA308D008C148312031354
:10103A000D1E202821281B280D12831603170C11B8
:10104A008B170800073083160317880002308900BF
:10105A000F308316031385008030870088018901C9
:10106A00FF308600831203138501860187018801F8
:10107A008901831603130F178F160F120F144030AE
:10108A008100CE30831203138100F33083160313D9
:10109A009500F3309600FF30831203139200BB30A1
:1010AA008316031392000C308312031397001D1446
:1010BA009D141D159D151D129D121F14C3309F05E9
:1010CA00203083120313A000A00B692800008312AA
:1010DA0003131F083F3940389F00831603139F13D9
:1010EA001F129F128B178B160B110C1783120313E7
:1010FA000C138B110B100B17831603138C16831208
:10110A0003138C12831603139816181283120313EF
:10111A009817831603131813831203131816181338
:10112A0083160317871119308316031399000130A8
:10113A009A00181508000310831203135E0D5F0D41
:10114A00E0006008E6006608031DAC28AD28B62852
:10115A000030DF000030DE000030DD000030DC004F
:10116A001B295C08E0005D08E1005E08E2005F08F8
:10117A00E3001F300310E30CE20CE10CE00CFF3E2D
:10118A00031DBF286008E4006408E500DE17FF308D
:10119A00DC05FF30DD05FF30DE050030DF05963067
:1011AA00E602E61FD928DA28F4286608803A973E2C
:1011BA000318E028E128E228AD2801300310DF0CEB
:1011CA00DE0CDD0CDC0CFF3E031DE3280130E000E1
:1011DA006008E607031DF228F328E2280B292030CD
:1011EA006602031CF928FA280629AD280130E00016
:1011FA000310DC0DDD0DDE0DDF0DE00BFD280130E7
:10120A00E6026608031D0A290B29FB28650803194B
:10121A000F2910291B29DC09DD09DE09DF09DC0A8F
:10122A000319DD0A0319DE0A0319DF0A0800B629C1
:10123A00831203132508A1002408A0000030A2008D
:10124A00A3000A128A1505200A128A1583120313AB
:10125A002708A1002608A0000130A2000030A30040
:10126A000A128A1505200A128A15831203132908FD
:10127A00A1002808A0000230A2000030A3000A1230
:10128A008A1505200A128A15013083160313A6004F
:10129A000030A700C829831203132508A1002408D7
:1012AA00A0000330A2000030A3000A128A1505200C
:1012BA000A128A15831203132708A1002608A00020
:1012CA000430A2000030A3000A128A1505200A126F
:1012DA008A15831203132908A1002808A0000530E3
:1012EA00A2000030A3000A128A1505200A128A15E4
:1012FA00023083160313A6000030A700C829831200
:10130A0003132508A1002408A0000630A20000301B
:10131A00A3000A128A1505200A128A1583120313DA
:10132A002708A1002608A0000730A2000030A30069
:10133A000A128A1505200A128A158312031329082C
:10134A00A1002808A0000830A2000030A3000A1259
:10135A008A1505200A128A1583160313A601A70106
:10136A00C829831603132708003A0319BD29C82977
:10137A002608003A03191D29013A03195029033A8C
:10138A0003198429C8290800712B831203136708DB
:10139A00A0006808A1000030A11BFF30A200A30032
:1013AA0001300A128A11B5260A128A15831203130A
:1013BA002308B5002208B4002108B3002008B200AF
:1013CA003D30B1001B30B000A530AF00E330AE00B5
:1013DA000A128A114D200A128A1583120313310840
:1013EA00CF003008CE002F08CD002E08CC004030A8
:1013FA00CB00A030CA000030C9000030C8000A1271
:10140A008A1578250A128A15831203134B08DF00FE
:10141A004A08DE004908DD004808DC000A128A157D
:10142A00A0200A128A15831203135D08EE005C08D5
:10143A00ED001F08C33904389F00203083160313B8
:10144A00AF00AF0B262A0000831203139F148E2BC2
:10145A00831203136708A0006808A1000030A11BCB
:10146A00FF30A200A30001300A128A11B5260A121F
:10147A008A15831203132308B5002208B400210831
:10148A00B3002008B2003E30B1008230B0000C3008
:10149A00AF004A30AE000A128A114D200A128A158C
:1014AA00831203133108CF003008CE002F08CD0075
:1014BA002E08CC004230CB009630CA000030C9005A
:1014CA000030C8000A128A1578250A128A15831272
:1014DA0003134B08DF004A08DE004908DD0048080C
:1014EA00DC000A128A15A0200A128A158312031335
:1014FA005D08EC005C08EB006B0895001F08C33917
:10150A0008389F00203083160313AF00AF0B8B2AD5
:10151A000000831203139F148E2B83120313670890
:10152A00A0006808A1000030A11BFF30A200A300A0
:10153A0001300A128A11B5260A128A158312031378
:10154A002308B5002208B4002108B3002008B2001D
:10155A003E30B1006B30B0008530AF001F30AE00B6
:10156A000A128A114D200A128A15831203133108AE
:10157A00CF003008CE002F08CD002E08CC00423014
:10158A00CB000C30CA000030C9000030C8000A1273
:10159A008A1578250A128A15831203134B08DF006D
:1015AA004A08DE004908DD004808DC000A128A15EC
:1015BA00A0200A128A15831203135D08EA005C0848
:1015CA00E90069089B001F08C33924389F002030AE
:1015DA0083160313AF00AF0BF02A00008312031324
:1015EA009F148E2B831203136808803AFF00803001
:1015FA007F02031D022B34306702031C052B062BC6
:10160A001C2B831203136808803AFF0080307F0284
:10161A00031D112BB43067020318142B152B1C2B36
:10162A000C3083160313AA000030AB00622B83121E
:10163A000313E81B212B222B3A2B6808803AFF0060
:10164A0080307F02031D2B2B3430670203182E2BA8
:10165A002F2B3A2B0A3083160313AA000030AB0053
:10166A000230831203138800622B83120313680863
:10167A00803AFF0080307F02031D452BB430670299
:10168A00031C482B492B622B831203136808803AE8
:10169A00FF0081307F02031D542B003067020318BC
:1016AA00572B582B622B0F3083160313AA000030D6
:1016BA00AB000130831203138800C3308312031373
:1016CA009F05203083160313AF00AF0B6A2B00006F
:1016DA00831203139F148E2B831203131F0C83167A
:1016EA000313AF002F0C0F39B000B1013108003AD3
:1016FA000319802B8E2B3008003A0319CA29013AA4
:10170A0003192D2A033A0319922A0B3A0319F72AC5
:10171A008E2B08005C2D831203136D08A0006E083F
:10172A00A100A201A30100300A128A11B5260A12E9
:10173A008A15831203132308B5002208B40021086E
:10174A00B3002008B2003F30B1005130B0006F3012
:10175A00AF000030AE000A128A114D200A128A1513
:10176A00831203133108CF003008CE002F08CD00B2
:10177A002E08CC00C030CB008230CA00E130C9004C
:10178A004830C8000A128A1578250A128A15831267
:10179A0003134B0883160313B200831203134A0878
:1017AA0083160313B1008312031349088316031324
:1017BA00B00083120313480883160313AF003208DC
:1017CA0083120313CF008316031331088312031302
:1017DA00CE0083160313300883120313CD00831639
:1017EA0003132F0883120313CC004230CB0040307E
:1017FA00CA000030C9000030C8000A128A157825CC
:10180A000A128A15831203134B08DF004A08DE0006
:10181A004908DD004808DC000A128A15A0200A12CD
:10182A008A15831203135C08E7006708F200013087
:10183A0083160313A0000030A1007208772D02302E
:10184A00A0000030A1002C30772D831203136B08FF
:10185A00A0006C08A100A201A30100300A128A119B
:10186A00B5260A128A15831203132308B500220823
:10187A00B4002108B3002008B2003E30B1000D3098
:10188A00B000D230AF00F230AE000A128A114D20F9
:10189A000A128A15831203133108CF003008CE00CA
:1018AA002F08CD002E08CC00C130CB002630CA004C
:1018BA006630C9006630C8000A128A1578250A12ED
:1018CA008A15831203134B0883160313B20083127B
:1018DA0003134A0883160313B1008312031349083A
:1018EA0083160313B00083120313480883160313E5
:1018FA00AF00320883120313CF0083160313310893
:10190A0083120313CE0083160313300883120313C2
:10191A00CD00831603132F0883120313CC00423021
:10192A00CB004430CA000030C9000030C8000A1297
:10193A008A1578250A128A15831203134B08DF00C9
:10194A004A08DE004908DD004808DC000A128A1548
:10195A00A0200A128A15831203135C08E70067089D
:10196A00F100033083160313A0000030A1007108B0
:10197A00772D0430A0000030A1002C30772D83127F
:10198A0003136908A0006A08A100A201A30100309C
:10199A000A128A11B5260A128A158312031323081A
:1019AA00B5002208B4002108B3002008B2003E3076
:1019BA00B1001E30B000D230AF008930AE000A123A
:1019CA008A114D200A128A15831203133108CF0097
:1019DA003008CE002F08CD002E08CC00C030CB0036
:1019EA00AC30CA00CC30C900CD30C8000A128A1502
:1019FA0078250A128A15831203134B0883160313D8
:101A0A00B200831203134A0883160313B100831228
:101A1A000313490883160313B000831203134808FB
:101A2A0083160313AF00320883120313CF00831601
:101A3A000313310883120313CE00831603133008ED
:101A4A0083120313CD00831603132F088312031383
:101A5A00CC004230CB004030CA000030C900003010
:101A6A00C8000A128A1578250A128A1583120313E6
:101A7A004B08DF004A08DE004908DD004808DC00A0
:101A8A000A128A15A0200A128A15831203135C0807
:101A9A00E7006708F000053083160313A000003042
:101AAA00A1007008772DA001A1010A30772D8316B5
:101ABA0003132108003A0319632D772D2008003AF1
:101ACA000319902B013A0319242C033A03192A2CDF
:101ADA00013A0319BE2C073A0319C42C013A031917
:101AEA00582D772D0800831203134B088039D00034
:101AFA005008D8004B08D0005007D1005108DA002E
:101B0A00CA1F882D892D8A2D5A145A0803198E2D19
:101B1A008F2D9F2D5A0A031D932D942D9C2D003035
:101B2A00CB000030CA000030C9000030C800CA1714
:101B3A00CB01A72D0030CB000030CA000030C9000D
:101B4A000030C8004F088039D0005008D900590821
:101B5A0058060319B12DB22DB32D58174F08D000CE
:101B6A005007D1005108D900CE1FBC2DBD2DBE2D66
:101B7A00591459080319C22DC32DD32D590A031D0F
:101B8A00C72DC82DD02D0030CF000030CE00003038
:101B9A00CD000030CC00CE17CF01DB2D0030CF00B6
:101BAA000030CE000030CD000030CC005A08590277
:101BBA000318E02DE12D252E581FE42DE52DE92DE2
:101BCA008030D0005008D8065A08D0005008DB00F0
:101BDA005908D0005008DA005B08D0005008D90034
:101BEA004808D0005008DB004C08D0005008C80054
:101BFA005B08D0005008CC004908D0005008DB0030
:101C0A004D08D0005008C9005B08D0005008CD002C
:101C1A004A08D0005008DB004E08D0005008CA001D
:101C2A005B08D0005008CE004B08D0005008DB00FB
:101C3A004F08D0005008CB005B08D0005008CF00F6
:101C4A00DB015908D000D1015108D3005A085002CB
:101C5A00D200031CD3035308803AFF0080307F026E
:101C6A00031D392E1A305202031C3C2E3D2E7A2EA9
:101C7A00831203134B084A0449044804031D462EE1
:101C8A00482E0130492E0030D0005008DB000030C9
:101C9A00CB000030CA000030C9000030C800590823
:101CAA00D0005008DA00822E5B1C5C2E5D2E662E58
:101CBA005B08D0000310500C0138D1005108DB003A
:101CCA00682E0310DB0C481C6B2E6C2E6D2EDB1756
:101CDA000130D0004B0DCB0CCA0CC90CC80CD00B70
:101CEA006F2E0130D0005008DA0783120313590807
:101CFA005A02031C812E822E592E581B852E862E9F
:101D0A00D12E5A08031D8A2E8B2E942E0030CB001A
:101D1A000030CA000030C9000030C800FF2F4C084C
:101D2A00C8074D0803110318013E03199D2EC90760
:101D3A004E0803110318013E0319A42ECA074F08BF
:101D4A0003110318013E0319AB2ECB074B1CAE2E11
:101D5A00AF2E852F5B1CB22EB32EBC2E5B08D00093
:101D6A000310500C0138D1005108DB00BE2E0310BD
:101D7A00DB0C481CC12EC22EC32EDB170130D0004B
:101D8A004B0DCB0CCA0CC90CC80CD00BC52E01309C
:101D9A00D0005008DA07852F4B08803AFF004F0819
:101DAA00803A7F02031DE32E4E084A02031DE32EEA
:101DBA004D084902031DE32E4C0848020318E62E7B
:101DCA00E72E3F2FFF30D000FF30D100FF30D20086
:101DDA00FF30D3004C08D4004D08D5004E08D60079
:101DEA004F08D7004808D4024908031C490FFE2EA1
:101DFA00FF2ED5024A08031C4A0F042F052FD602CC
:101E0A004B08031C4B0F0A2F0B2FD7025408D0077D
:101E1A0055080318550F122F132FD1075608031808
:101E2A00560F182F192FD20757080318570AD30726
:101E3A005308CB005208CA005108C9005008C8000C
:101E4A008030D0005008D806DB09DB0A5B08031D86
:101E5A002F2F302F4D2F0130C807003003180130C3
:101E6A00C907003003180130CA07003003180130CF
:101E7A00CB074D2F4C08C8024D08031C4D0FC90251
:101E8A004E08031C4E0FCA024F08031C4F0FCB0209
:101E9A004B084A0449044804031D542F552F812F27
:101EAA005B08031D592F5A2F812F0030CB000030B9
:101EBA00CA000030C9000030C800FF2F0130D0002E
:101ECA000310C80DC90DCA0DCB0DD00B652FDB1F32
:101EDA006F2F702F712F48145B1C742F752F782F5A
:101EEA000314DB0D7A2F0310DB0D5A0803197E2F1A
:101EFA007F2F812F0130DA02CA1F842F852F632F8B
:101F0A00D901DB1F892F8A2F982F5B087F39031984
:101F1A008F2F902F932FD901D90A982F481C962FCB
:101F2A00972F982F902F590803199C2F9D2FD12F47
:101F3A000130C807003003180130C9070030031800
:101F4A000130CA07003003180130CB074B1CAE2FF3
:101F5A00AF2FD12F4808D0004908D1004A08D20033
:101F6A004B08D3000130D400530DD30CD20CD10C42
:101F7A00D00CD40BB92F5308CB005208CA00510811
:101F8A00C9005008C8005A0A0319CC2FCD2FD12FE7
:101F9A000130D0005008DA075A0A0319D52FD62F74
:101FAA00DB2F5A08031DDA2FDB2FE92F0030CB0075
:101FBA000030CA000030C9000030C8005A08031DAA
:101FCA00E72FE82FE92FD8015A1CEC2FED2FEF2F1E
:101FDA00CA17F32F7F30D0005008CA055A08D0001C
:101FEA000310500CD1005108CB00D81FFD2FFE2F33
:061FFA00FF2FCB170800C9
:102F7A00831203132008831203178D008316031785
:102F8A008C130C14831203170C0883120313A20068
:102F9A00A3012208A4002308A5002508A1002408EB
:102FAA00A000080083120313A800A401A5012008A9
:102FBA00A200A3012208A6002308A700281CE62FC6
:102FCA00E72FED2F2608A4070318A50A2708A50747
:102FDA0001300310A60DA70DFF3E031DEE2F0310AF
:102FEA00A80C2808031DFA2FFB2FE32F2508A100A0
:062FFA002408A0000800FD
:04400E00D520FF3F7B
:00000001FF
