:060000000A128A110F280C
:100008008B13A000030EA1000B184B20210E8300B8
:10001800A00E200E090015201920312042203E2074
:100028001428031383160F14080003178316880176
:100038008901031383168501061486178701880131
:10004800091015149517031383128501860187017A
:1000580088013F308800A301080064000313831659
:1000680050300105023881000313831204308100E7
:100078000B1108008B178B150B1008000313831640
:10008800161496170313831206080B100800061C93
:0E009800850A861F8503051A85010B100800D6
:04400E00D420FF3F7C
:00000001FF
