:060000000A128A11132907
:100008008B13A000030EA1000B184E210B195921C8
:0A001800210E8300A00E200E090047
:100200008A010A1482073F3406345B344F34663463
:100210006D347D3407347F34673477347C3439343B
:100220005E347934713419211D21362145213F2155
:100230001829031383160F14080003178316880167
:10024000890103138316850106148614870188012A
:1002500009101514951403138312850186013F308C
:1002600088008700A301A201A40108006400031311
:1002700083165030010504388100682108008B176F
:100280008B158B160B110B10080003138316161415
:1002900096140313831206080B100800061C850A27
:1002A000861C8503050800218700051A85010B10AF
:1002B00008006821A20A22087D3C031D0800A20153
:1002C000A40A24080F39002188000B110800080037
:0C02D00003138312063081000B1108009C
:04400E00D420FF3F7C
:00000001FF
