:060000000A128A116029BA
:100008008B13A000030EA1000B1957218521210E87
:080018008300A00E200E090078
:100200008A010A1482073F3406345B344F34663463
:100210006D347D3407347F34673477347C3439343B
:100220005E3479347134031383160F1408000317F6
:1002300083168801890103138316850188018901CA
:100240008701880106148614061586131514951463
:1002500015150313831285018601880189013F303A
:1002600087000800AE010A30A400A600A70008001D
:1002700064000313831650300105043881005121B6
:1002800008008B178B158B160B110B10080003132E
:1002900083161614961416150313831206080B10F2
:1002A000080003138312063081000B11080051214E
:1002B000A20A22087D3C031D0800A201A403080035
:1002C0001321172138214721412132216A2175212B
:1002D0007E2166292408A500A8010A30A50203187A
:1002E000A80A03186E29A5070800A9010130A50274
:1002F0000318A90A03187729A5070800290800216F
:10030000AE0028080021AF00080051218801231801
:100310009029A3188B292E088700081401309529ED
:0E0320002F088700881400309529A3000800DC
:04400E00D420FF3F7C
:00000001FF
