:060000000A128A117429A6
:100008008B13A000030EA1000B195821A721210E64
:080018008300A00E200E090078
:100200008A010A1482073F3406345B344F34663463
:100210006D347D3407347F346734031383160F1431
:1002200008000317831688018901031383168501CB
:100230008801890187018801061486140615861332
:100240001514951415150313831285018601880171
:1002500089013F3087000800B0010A30A400A700E0
:10026000A8002408A500031383124C3085008613D0
:100270000800640003138316503001050438810020
:10028000522108008B178B158B160B110B100800D1
:1002900003138316161496141615031383120608F7
:1002A0000B10080003138312063081000B110800A5
:1002B0005221A20A22087D3C031D0800A201A503C9
:1002C00007302506031929140430250603196D216A
:1002D0000030250603197121080029100511851425
:1002E00008008510051408000D211121392148212D
:1002F00042212C218C219721A0217F217A292918A4
:10030000822908003E3022060319051103197C30AA
:1003100022060319051508002508A600AA010A30BF
:10032000A6020318AA0A03189029A6070800AB0121
:100330000130A6020318AB0A03189929A607080082
:100340002B080021B0002A080021B100080052212A
:1003500088012318B229A318AD2930088700081492
:100360000130B7293108870088140030B729A3006D
:02037000080083
:04400E00D420FF3F7C
:00000001FF
