:060000000A128A115029CA
:100008008B13A000030EA1000B180B19210E8300FF
:06001800A00E200E0900FD
:100200008A010A1482073F3406345B344F34663463
:100210006D347D3407347F34673477347C3439343B
:100220005E3479347134031383160F1408000317F6
:1002300083168801890103138316850188018901CA
:100240008701880106148614061586131514951463
:1002500015150313831285018601880189013F303A
:10026000870008006400031383165030010504382A
:1002700081004A2108008B178B158B160B110B1070
:10028000080003138316161496140313831206082A
:100290000B10080003138312063081000B110800B5
:0A02A00013211721322141213B21D7
:04400E00D420FF3F7C
:00000001FF
